{
  "_format": "hh-sol-artifact-1",
  "contractName": "Genesis",
  "sourceName": "src/contracts/Genesis.sol",
  "abi": [
    {
      "inputs": [
        {
          "internalType": "uint256",
          "name": "_projectTax",
          "type": "uint256"
        }
      ],
      "stateMutability": "nonpayable",
      "type": "constructor"
    },
    {
      "anonymous": false,
      "inputs": [
        {
          "indexed": false,
          "internalType": "uint256",
          "name": "id",
          "type": "uint256"
        },
        {
          "indexed": false,
          "internalType": "string",
          "name": "actionType",
          "type": "string"
        },
        {
          "indexed": true,
          "internalType": "address",
          "name": "executor",
          "type": "address"
        },
        {
          "indexed": false,
          "internalType": "uint256",
          "name": "timestamp",
          "type": "uint256"
        }
      ],
      "name": "Action",
      "type": "event"
    },
    {
      "inputs": [
        {
          "internalType": "uint256",
          "name": "id",
          "type": "uint256"
        }
      ],
      "name": "backProject",
      "outputs": [
        {
          "internalType": "bool",
          "name": "",
          "type": "bool"
        }
      ],
      "stateMutability": "payable",
      "type": "function"
    },
    {
      "inputs": [],
      "name": "balance",
      "outputs": [
        {
          "internalType": "uint256",
          "name": "",
          "type": "uint256"
        }
      ],
      "stateMutability": "view",
      "type": "function"
    },
    {
      "inputs": [
        {
          "internalType": "uint256",
          "name": "_taxPct",
          "type": "uint256"
        }
      ],
      "name": "changeTax",
      "outputs": [],
      "stateMutability": "nonpayable",
      "type": "function"
    },
    {
      "inputs": [
        {
          "internalType": "string",
          "name": "title",
          "type": "string"
        },
        {
          "internalType": "string",
          "name": "description",
          "type": "string"
        },
        {
          "internalType": "string",
          "name": "imageURL",
          "type": "string"
        },
        {
          "internalType": "uint256",
          "name": "cost",
          "type": "uint256"
        },
        {
          "internalType": "uint256",
          "name": "expiresAt",
          "type": "uint256"
        }
      ],
      "name": "createProject",
      "outputs": [
        {
          "internalType": "bool",
          "name": "",
          "type": "bool"
        }
      ],
      "stateMutability": "nonpayable",
      "type": "function"
    },
    {
      "inputs": [
        {
          "internalType": "uint256",
          "name": "id",
          "type": "uint256"
        }
      ],
      "name": "deleteProject",
      "outputs": [
        {
          "internalType": "bool",
          "name": "",
          "type": "bool"
        }
      ],
      "stateMutability": "nonpayable",
      "type": "function"
    },
    {
      "inputs": [
        {
          "internalType": "uint256",
          "name": "id",
          "type": "uint256"
        }
      ],
      "name": "getBackers",
      "outputs": [
        {
          "components": [
            {
              "internalType": "address",
              "name": "owner",
              "type": "address"
            },
            {
              "internalType": "uint256",
              "name": "contribution",
              "type": "uint256"
            },
            {
              "internalType": "uint256",
              "name": "timestamp",
              "type": "uint256"
            },
            {
              "internalType": "bool",
              "name": "refunded",
              "type": "bool"
            }
          ],
          "internalType": "struct Genesis.backerStruct[]",
          "name": "",
          "type": "tuple[]"
        }
      ],
      "stateMutability": "view",
      "type": "function"
    },
    {
      "inputs": [
        {
          "internalType": "uint256",
          "name": "id",
          "type": "uint256"
        }
      ],
      "name": "getProject",
      "outputs": [
        {
          "components": [
            {
              "internalType": "uint256",
              "name": "id",
              "type": "uint256"
            },
            {
              "internalType": "address",
              "name": "owner",
              "type": "address"
            },
            {
              "internalType": "string",
              "name": "title",
              "type": "string"
            },
            {
              "internalType": "string",
              "name": "description",
              "type": "string"
            },
            {
              "internalType": "string",
              "name": "imageURL",
              "type": "string"
            },
            {
              "internalType": "uint256",
              "name": "cost",
              "type": "uint256"
            },
            {
              "internalType": "uint256",
              "name": "raised",
              "type": "uint256"
            },
            {
              "internalType": "uint256",
              "name": "timestamp",
              "type": "uint256"
            },
            {
              "internalType": "uint256",
              "name": "expiresAt",
              "type": "uint256"
            },
            {
              "internalType": "uint256",
              "name": "backers",
              "type": "uint256"
            },
            {
              "internalType": "enum Genesis.statusEnum",
              "name": "status",
              "type": "uint8"
            }
          ],
          "internalType": "struct Genesis.projectStruct",
          "name": "",
          "type": "tuple"
        }
      ],
      "stateMutability": "view",
      "type": "function"
    },
    {
      "inputs": [],
      "name": "getProjects",
      "outputs": [
        {
          "components": [
            {
              "internalType": "uint256",
              "name": "id",
              "type": "uint256"
            },
            {
              "internalType": "address",
              "name": "owner",
              "type": "address"
            },
            {
              "internalType": "string",
              "name": "title",
              "type": "string"
            },
            {
              "internalType": "string",
              "name": "description",
              "type": "string"
            },
            {
              "internalType": "string",
              "name": "imageURL",
              "type": "string"
            },
            {
              "internalType": "uint256",
              "name": "cost",
              "type": "uint256"
            },
            {
              "internalType": "uint256",
              "name": "raised",
              "type": "uint256"
            },
            {
              "internalType": "uint256",
              "name": "timestamp",
              "type": "uint256"
            },
            {
              "internalType": "uint256",
              "name": "expiresAt",
              "type": "uint256"
            },
            {
              "internalType": "uint256",
              "name": "backers",
              "type": "uint256"
            },
            {
              "internalType": "enum Genesis.statusEnum",
              "name": "status",
              "type": "uint8"
            }
          ],
          "internalType": "struct Genesis.projectStruct[]",
          "name": "",
          "type": "tuple[]"
        }
      ],
      "stateMutability": "view",
      "type": "function"
    },
    {
      "inputs": [],
      "name": "owner",
      "outputs": [
        {
          "internalType": "address",
          "name": "",
          "type": "address"
        }
      ],
      "stateMutability": "view",
      "type": "function"
    },
    {
      "inputs": [
        {
          "internalType": "uint256",
          "name": "id",
          "type": "uint256"
        }
      ],
      "name": "payOutProject",
      "outputs": [
        {
          "internalType": "bool",
          "name": "",
          "type": "bool"
        }
      ],
      "stateMutability": "nonpayable",
      "type": "function"
    },
    {
      "inputs": [],
      "name": "projectCount",
      "outputs": [
        {
          "internalType": "uint256",
          "name": "",
          "type": "uint256"
        }
      ],
      "stateMutability": "view",
      "type": "function"
    },
    {
      "inputs": [
        {
          "internalType": "uint256",
          "name": "",
          "type": "uint256"
        }
      ],
      "name": "projectExist",
      "outputs": [
        {
          "internalType": "bool",
          "name": "",
          "type": "bool"
        }
      ],
      "stateMutability": "view",
      "type": "function"
    },
    {
      "inputs": [],
      "name": "projectTax",
      "outputs": [
        {
          "internalType": "uint256",
          "name": "",
          "type": "uint256"
        }
      ],
      "stateMutability": "view",
      "type": "function"
    },
    {
      "inputs": [
        {
          "internalType": "uint256",
          "name": "id",
          "type": "uint256"
        }
      ],
      "name": "requestRefund",
      "outputs": [
        {
          "internalType": "bool",
          "name": "",
          "type": "bool"
        }
      ],
      "stateMutability": "nonpayable",
      "type": "function"
    },
    {
      "inputs": [],
      "name": "stats",
      "outputs": [
        {
          "internalType": "uint256",
          "name": "totalProjects",
          "type": "uint256"
        },
        {
          "internalType": "uint256",
          "name": "totalBacking",
          "type": "uint256"
        },
        {
          "internalType": "uint256",
          "name": "totalDonations",
          "type": "uint256"
        }
      ],
      "stateMutability": "view",
      "type": "function"
    },
    {
      "inputs": [
        {
          "internalType": "uint256",
          "name": "id",
          "type": "uint256"
        },
        {
          "internalType": "string",
          "name": "title",
          "type": "string"
        },
        {
          "internalType": "string",
          "name": "description",
          "type": "string"
        },
        {
          "internalType": "string",
          "name": "imageURL",
          "type": "string"
        },
        {
          "internalType": "uint256",
          "name": "expiresAt",
          "type": "uint256"
        }
      ],
      "name": "updateProject",
      "outputs": [
        {
          "internalType": "bool",
          "name": "",
          "type": "bool"
        }
      ],
      "stateMutability": "nonpayable",
      "type": "function"
    }
  ],
  "bytecode": "0x60806040523480156200001157600080fd5b50604051620038a8380380620038a883398181016040528101906200003791906200009c565b336000806101000a81548173ffffffffffffffffffffffffffffffffffffffff021916908373ffffffffffffffffffffffffffffffffffffffff1602179055508060018190555050620000f7565b6000815190506200009681620000dd565b92915050565b600060208284031215620000b557620000b4620000d8565b5b6000620000c58482850162000085565b91505092915050565b6000819050919050565b600080fd5b620000e881620000ce565b8114620000f457600080fd5b50565b6137a180620001076000396000f3fe6080604052600436106100f35760003560e01c8063a4b2409e1161008a578063d24cd3ec11610059578063d24cd3ec1461037d578063d80528ae146103a8578063dcc60128146103d5578063f0f3f2c814610400576100f3565b8063a4b2409e1461029b578063b531dcba146102d8578063b69ef8a814610315578063c9168b7214610340576100f3565b80638593054b116100c65780638593054b146101c65780638da5cb5b146102035780639a3fa8c71461022e5780639f39a1941461026b576100f3565b8063056c29ee146100f857806336fbad26146101355780633e45c8af146101605780634cd0cb2814610189575b600080fd5b34801561010457600080fd5b5061011f600480360381019061011a919061243b565b61043d565b60405161012c9190612cbd565b60405180910390f35b34801561014157600080fd5b5061014a610945565b6040516101579190612e5a565b60405180910390f35b34801561016c57600080fd5b506101876004803603810190610182919061250a565b61094b565b005b34801561019557600080fd5b506101b060048036038101906101ab919061250a565b6109e3565b6040516101bd9190612cbd565b60405180910390f35b3480156101d257600080fd5b506101ed60048036038101906101e8919061250a565b610be0565b6040516101fa9190612cbd565b60405180910390f35b34801561020f57600080fd5b50610218610c00565b6040516102259190612c5e565b60405180910390f35b34801561023a57600080fd5b5061025560048036038101906102509190612537565b610c24565b6040516102629190612cbd565b60405180910390f35b6102856004803603810190610280919061250a565b610eda565b6040516102929190612cbd565b60405180910390f35b3480156102a757600080fd5b506102c260048036038101906102bd919061250a565b611391565b6040516102cf9190612cbd565b60405180910390f35b3480156102e457600080fd5b506102ff60048036038101906102fa919061250a565b6115f8565b60405161030c9190612cbd565b60405180910390f35b34801561032157600080fd5b5061032a6117ae565b6040516103379190612e5a565b60405180910390f35b34801561034c57600080fd5b506103676004803603810190610362919061250a565b6117b4565b6040516103749190612c79565b60405180910390f35b34801561038957600080fd5b506103926118ab565b60405161039f9190612e5a565b60405180910390f35b3480156103b457600080fd5b506103bd6118b1565b6040516103cc93929190612fa1565b60405180910390f35b3480156103e157600080fd5b506103ea6118c9565b6040516103f79190612c9b565b60405180910390f35b34801561040c57600080fd5b506104276004803603810190610422919061250a565b611bac565b6040516104349190612e38565b60405180910390f35b600080865111610482576040517f08c379a000000000000000000000000000000000000000000000000000000000815260040161047990612d58565b60405180910390fd5b60008551116104c6576040517f08c379a00000000000000000000000000000000000000000000000000000000081526004016104bd90612d38565b60405180910390fd5b600084511161050a576040517f08c379a000000000000000000000000000000000000000000000000000000000815260040161050190612df8565b60405180910390fd5b6000831161054d576040517f08c379a000000000000000000000000000000000000000000000000000000000815260040161054490612d98565b60405180910390fd5b610555612291565b60025481600001818152505033816020019073ffffffffffffffffffffffffffffffffffffffff16908173ffffffffffffffffffffffffffffffffffffffff1681525050868160400181905250858160600181905250848160800181905250838160a0018181525050428160e0018181525050828161010001818152505060078190806001815401808255809150506001900390600052602060002090600b02016000909190919091506000820151816000015560208201518160010160006101000a81548173ffffffffffffffffffffffffffffffffffffffff021916908373ffffffffffffffffffffffffffffffffffffffff160217905550604082015181600201908051906020019061066c929190612313565b506060820151816003019080519060200190610689929190612313565b5060808201518160040190805190602001906106a6929190612313565b5060a0820151816005015560c0820151816006015560e082015181600701556101008201518160080155610120820151816009015561014082015181600a0160006101000a81548160ff02191690836004811115610707576107066133a6565b5b021790555050506001600a6000600254815260200190815260200160002060006101000a81548160ff021916908315150217905550600860003373ffffffffffffffffffffffffffffffffffffffff1673ffffffffffffffffffffffffffffffffffffffff1681526020019081526020016000208190806001815401808255809150506001900390600052602060002090600b02016000909190919091506000820151816000015560208201518160010160006101000a81548173ffffffffffffffffffffffffffffffffffffffff021916908373ffffffffffffffffffffffffffffffffffffffff1602179055506040820151816002019080519060200190610812929190612313565b50606082015181600301908051906020019061082f929190612313565b50608082015181600401908051906020019061084c929190612313565b5060a0820151816005015560c0820151816006015560e082015181600701556101008201518160080155610120820151816009015561014082015181600a0160006101000a81548160ff021916908360048111156108ad576108ac6133a6565b5b021790555050506001600460000160008282546108ca91906130d8565b925050819055503373ffffffffffffffffffffffffffffffffffffffff167faee8e5d3bbb2f71a951b5632cee20f7ac487b9f8ab4f66a236f7694b13af7c6a6002600081548092919061091c906132ff565b919050554260405161092f929190612f65565b60405180910390a2600191505095945050505050565b60025481565b60008054906101000a900473ffffffffffffffffffffffffffffffffffffffff1673ffffffffffffffffffffffffffffffffffffffff163373ffffffffffffffffffffffffffffffffffffffff16146109d9576040517f08c379a00000000000000000000000000000000000000000000000000000000081526004016109d090612dd8565b60405180910390fd5b8060018190555050565b60008060048111156109f8576109f76133a6565b5b60078381548110610a0c57610a0b613404565b5b90600052602060002090600b0201600a0160009054906101000a900460ff166004811115610a3d57610a3c6133a6565b5b14610a7d576040517f08c379a0000000000000000000000000000000000000000000000000000000008152600401610a7490612cf8565b60405180910390fd5b60078281548110610a9157610a90613404565b5b90600052602060002090600b020160010160009054906101000a900473ffffffffffffffffffffffffffffffffffffffff1673ffffffffffffffffffffffffffffffffffffffff163373ffffffffffffffffffffffffffffffffffffffff1614610b30576040517f08c379a0000000000000000000000000000000000000000000000000000000008152600401610b2790612cd8565b60405180910390fd5b600360078381548110610b4657610b45613404565b5b90600052602060002090600b0201600a0160006101000a81548160ff02191690836004811115610b7957610b786133a6565b5b0217905550610b8782611ecc565b3373ffffffffffffffffffffffffffffffffffffffff167faee8e5d3bbb2f71a951b5632cee20f7ac487b9f8ab4f66a236f7694b13af7c6a8342604051610bcf929190612e75565b60405180910390a260019050919050565b600a6020528060005260406000206000915054906101000a900460ff1681565b60008054906101000a900473ffffffffffffffffffffffffffffffffffffffff1681565b600060078681548110610c3a57610c39613404565b5b90600052602060002090600b020160010160009054906101000a900473ffffffffffffffffffffffffffffffffffffffff1673ffffffffffffffffffffffffffffffffffffffff163373ffffffffffffffffffffffffffffffffffffffff1614610cd9576040517f08c379a0000000000000000000000000000000000000000000000000000000008152600401610cd090612cd8565b60405180910390fd5b6000855111610d1d576040517f08c379a0000000000000000000000000000000000000000000000000000000008152600401610d1490612d58565b60405180910390fd5b6000845111610d61576040517f08c379a0000000000000000000000000000000000000000000000000000000008152600401610d5890612d38565b60405180910390fd5b6000835111610da5576040517f08c379a0000000000000000000000000000000000000000000000000000000008152600401610d9c90612df8565b60405180910390fd5b8460078781548110610dba57610db9613404565b5b90600052602060002090600b02016002019080519060200190610dde929190612313565b508360078781548110610df457610df3613404565b5b90600052602060002090600b02016003019080519060200190610e18929190612313565b508260078781548110610e2e57610e2d613404565b5b90600052602060002090600b02016004019080519060200190610e52929190612313565b508160078781548110610e6857610e67613404565b5b90600052602060002090600b0201600801819055503373ffffffffffffffffffffffffffffffffffffffff167faee8e5d3bbb2f71a951b5632cee20f7ac487b9f8ab4f66a236f7694b13af7c6a8742604051610ec5929190612f29565b60405180910390a26001905095945050505050565b6000803411610f1e576040517f08c379a0000000000000000000000000000000000000000000000000000000008152600401610f1590612e18565b60405180910390fd5b600a600083815260200190815260200160002060009054906101000a900460ff16610f7e576040517f08c379a0000000000000000000000000000000000000000000000000000000008152600401610f7590612db8565b60405180910390fd5b60006004811115610f9257610f916133a6565b5b60078381548110610fa657610fa5613404565b5b90600052602060002090600b0201600a0160009054906101000a900460ff166004811115610fd757610fd66133a6565b5b14611017576040517f08c379a000000000000000000000000000000000000000000000000000000000815260040161100e90612cf8565b60405180910390fd5b60016004600101600082825461102d91906130d8565b92505081905550346004600201600082825461104991906130d8565b92505081905550346007838154811061106557611064613404565b5b90600052602060002090600b0201600601600082825461108591906130d8565b925050819055506001600783815481106110a2576110a1613404565b5b90600052602060002090600b020160090160008282546110c291906130d8565b925050819055506009600083815260200190815260200160002060405180608001604052803373ffffffffffffffffffffffffffffffffffffffff16815260200134815260200142815260200160001515815250908060018154018082558091505060019003906000526020600020906004020160009091909190915060008201518160000160006101000a81548173ffffffffffffffffffffffffffffffffffffffff021916908373ffffffffffffffffffffffffffffffffffffffff160217905550602082015181600101556040820151816002015560608201518160030160006101000a81548160ff02191690831515021790555050503373ffffffffffffffffffffffffffffffffffffffff167faee8e5d3bbb2f71a951b5632cee20f7ac487b9f8ab4f66a236f7694b13af7c6a8342604051611204929190612eed565b60405180910390a2600782815481106112205761121f613404565b5b90600052602060002090600b0201600501546007838154811061124657611245613404565b5b90600052602060002090600b020160060154106112fb5760016007838154811061127357611272613404565b5b90600052602060002090600b0201600a0160006101000a81548160ff021916908360048111156112a6576112a56133a6565b5b0217905550600782815481106112bf576112be613404565b5b90600052602060002090600b020160060154600360008282546112e291906130d8565b925050819055506112f282612069565b6001905061138c565b6007828154811061130f5761130e613404565b5b90600052602060002090600b02016008015442106113875760026007838154811061133d5761133c613404565b5b90600052602060002090600b0201600a0160006101000a81548160ff021916908360048111156113705761136f6133a6565b5b021790555061137e82611ecc565b6001905061138c565b600190505b919050565b6000600260048111156113a7576113a66133a6565b5b600783815481106113bb576113ba613404565b5b90600052602060002090600b0201600a0160009054906101000a900460ff1660048111156113ec576113eb6133a6565b5b141580611450575060036004811115611408576114076133a6565b5b6007838154811061141c5761141b613404565b5b90600052602060002090600b0201600a0160009054906101000a900460ff16600481111561144d5761144c6133a6565b5b14155b61148f576040517f08c379a000000000000000000000000000000000000000000000000000000000815260040161148690612d78565b60405180910390fd5b600782815481106114a3576114a2613404565b5b90600052602060002090600b020160010160009054906101000a900473ffffffffffffffffffffffffffffffffffffffff1673ffffffffffffffffffffffffffffffffffffffff163373ffffffffffffffffffffffffffffffffffffffff161480611559575060008054906101000a900473ffffffffffffffffffffffffffffffffffffffff1673ffffffffffffffffffffffffffffffffffffffff163373ffffffffffffffffffffffffffffffffffffffff16145b611598576040517f08c379a000000000000000000000000000000000000000000000000000000000815260040161158f90612cd8565b60405180910390fd5b6002600783815481106115ae576115ad613404565b5b90600052602060002090600b0201600a0160006101000a81548160ff021916908360048111156115e1576115e06133a6565b5b02179055506115ef82611ecc565b60019050919050565b60006001600481111561160e5761160d6133a6565b5b6007838154811061162257611621613404565b5b90600052602060002090600b0201600a0160009054906101000a900460ff166004811115611653576116526133a6565b5b14611693576040517f08c379a000000000000000000000000000000000000000000000000000000000815260040161168a90612d18565b60405180910390fd5b600782815481106116a7576116a6613404565b5b90600052602060002090600b020160010160009054906101000a900473ffffffffffffffffffffffffffffffffffffffff1673ffffffffffffffffffffffffffffffffffffffff163373ffffffffffffffffffffffffffffffffffffffff16148061175d575060008054906101000a900473ffffffffffffffffffffffffffffffffffffffff1673ffffffffffffffffffffffffffffffffffffffff163373ffffffffffffffffffffffffffffffffffffffff16145b61179c576040517f08c379a000000000000000000000000000000000000000000000000000000000815260040161179390612cd8565b60405180910390fd5b6117a582612069565b60019050919050565b60035481565b606060096000838152602001908152602001600020805480602002602001604051908101604052809291908181526020016000905b828210156118a057838290600052602060002090600402016040518060800160405290816000820160009054906101000a900473ffffffffffffffffffffffffffffffffffffffff1673ffffffffffffffffffffffffffffffffffffffff1673ffffffffffffffffffffffffffffffffffffffff16815260200160018201548152602001600282015481526020016003820160009054906101000a900460ff161515151581525050815260200190600101906117e9565b505050509050919050565b60015481565b60048060000154908060010154908060020154905083565b60606007805480602002602001604051908101604052809291908181526020016000905b82821015611ba357838290600052602060002090600b020160405180610160016040529081600082015481526020016001820160009054906101000a900473ffffffffffffffffffffffffffffffffffffffff1673ffffffffffffffffffffffffffffffffffffffff1673ffffffffffffffffffffffffffffffffffffffff1681526020016002820180546119819061329c565b80601f01602080910402602001604051908101604052809291908181526020018280546119ad9061329c565b80156119fa5780601f106119cf576101008083540402835291602001916119fa565b820191906000526020600020905b8154815290600101906020018083116119dd57829003601f168201915b50505050508152602001600382018054611a139061329c565b80601f0160208091040260200160405190810160405280929190818152602001828054611a3f9061329c565b8015611a8c5780601f10611a6157610100808354040283529160200191611a8c565b820191906000526020600020905b815481529060010190602001808311611a6f57829003601f168201915b50505050508152602001600482018054611aa59061329c565b80601f0160208091040260200160405190810160405280929190818152602001828054611ad19061329c565b8015611b1e5780601f10611af357610100808354040283529160200191611b1e565b820191906000526020600020905b815481529060010190602001808311611b0157829003601f168201915b505050505081526020016005820154815260200160068201548152602001600782015481526020016008820154815260200160098201548152602001600a820160009054906101000a900460ff166004811115611b7e57611b7d6133a6565b5b6004811115611b9057611b8f6133a6565b5b81525050815260200190600101906118ed565b50505050905090565b611bb4612291565b600a600083815260200190815260200160002060009054906101000a900460ff16611c14576040517f08c379a0000000000000000000000000000000000000000000000000000000008152600401611c0b90612db8565b60405180910390fd5b60078281548110611c2857611c27613404565b5b90600052602060002090600b020160405180610160016040529081600082015481526020016001820160009054906101000a900473ffffffffffffffffffffffffffffffffffffffff1673ffffffffffffffffffffffffffffffffffffffff1673ffffffffffffffffffffffffffffffffffffffff168152602001600282018054611cb29061329c565b80601f0160208091040260200160405190810160405280929190818152602001828054611cde9061329c565b8015611d2b5780601f10611d0057610100808354040283529160200191611d2b565b820191906000526020600020905b815481529060010190602001808311611d0e57829003601f168201915b50505050508152602001600382018054611d449061329c565b80601f0160208091040260200160405190810160405280929190818152602001828054611d709061329c565b8015611dbd5780601f10611d9257610100808354040283529160200191611dbd565b820191906000526020600020905b815481529060010190602001808311611da057829003601f168201915b50505050508152602001600482018054611dd69061329c565b80601f0160208091040260200160405190810160405280929190818152602001828054611e029061329c565b8015611e4f5780601f10611e2457610100808354040283529160200191611e4f565b820191906000526020600020905b815481529060010190602001808311611e3257829003601f168201915b505050505081526020016005820154815260200160068201548152602001600782015481526020016008820154815260200160098201548152602001600a820160009054906101000a900460ff166004811115611eaf57611eae6133a6565b5b6004811115611ec157611ec06133a6565b5b815250509050919050565b60005b6009600083815260200190815260200160002080549050811015612065576000600960008481526020019081526020016000208281548110611f1457611f13613404565b5b906000526020600020906004020160000160009054906101000a900473ffffffffffffffffffffffffffffffffffffffff1690506000600960008581526020019081526020016000208381548110611f6f57611f6e613404565b5b90600052602060002090600402016001015490506001600960008681526020019081526020016000208481548110611faa57611fa9613404565b5b906000526020600020906004020160030160006101000a81548160ff02191690831515021790555042600960008681526020019081526020016000208481548110611ff857611ff7613404565b5b9060005260206000209060040201600201819055506120178282612216565b60016004600101600082825461202d91906131b9565b92505081905550806004600201600082825461204991906131b9565b925050819055505050808061205d906132ff565b915050611ecf565b5050565b60006007828154811061207f5761207e613404565b5b90600052602060002090600b020160060154905060006064600154836120a5919061315f565b6120af919061312e565b90506004600784815481106120c7576120c6613404565b5b90600052602060002090600b0201600a0160006101000a81548160ff021916908360048111156120fa576120f96133a6565b5b02179055506121596007848154811061211657612115613404565b5b90600052602060002090600b020160010160009054906101000a900473ffffffffffffffffffffffffffffffffffffffff16828461215491906131b9565b612216565b61218360008054906101000a900473ffffffffffffffffffffffffffffffffffffffff1682612216565b6007838154811061219757612196613404565b5b90600052602060002090600b020160060154600360008282546121ba91906131b9565b925050819055503373ffffffffffffffffffffffffffffffffffffffff167faee8e5d3bbb2f71a951b5632cee20f7ac487b9f8ab4f66a236f7694b13af7c6a8442604051612209929190612eb1565b60405180910390a2505050565b60008273ffffffffffffffffffffffffffffffffffffffff168260405161223c90612c49565b60006040518083038185875af1925050503d8060008114612279576040519150601f19603f3d011682016040523d82523d6000602084013e61227e565b606091505b505090508061228c57600080fd5b505050565b60405180610160016040528060008152602001600073ffffffffffffffffffffffffffffffffffffffff16815260200160608152602001606081526020016060815260200160008152602001600081526020016000815260200160008152602001600081526020016000600481111561230d5761230c6133a6565b5b81525090565b82805461231f9061329c565b90600052602060002090601f0160209004810192826123415760008555612388565b82601f1061235a57805160ff1916838001178555612388565b82800160010185558215612388579182015b8281111561238757825182559160200191906001019061236c565b5b5090506123959190612399565b5090565b5b808211156123b257600081600090555060010161239a565b5090565b60006123c96123c484612ffd565b612fd8565b9050828152602081018484840111156123e5576123e4613467565b5b6123f084828561325a565b509392505050565b600082601f83011261240d5761240c613462565b5b813561241d8482602086016123b6565b91505092915050565b60008135905061243581613754565b92915050565b600080600080600060a0868803121561245757612456613471565b5b600086013567ffffffffffffffff8111156124755761247461346c565b5b612481888289016123f8565b955050602086013567ffffffffffffffff8111156124a2576124a161346c565b5b6124ae888289016123f8565b945050604086013567ffffffffffffffff8111156124cf576124ce61346c565b5b6124db888289016123f8565b93505060606124ec88828901612426565b92505060806124fd88828901612426565b9150509295509295909350565b6000602082840312156125205761251f613471565b5b600061252e84828501612426565b91505092915050565b600080600080600060a0868803121561255357612552613471565b5b600061256188828901612426565b955050602086013567ffffffffffffffff8111156125825761258161346c565b5b61258e888289016123f8565b945050604086013567ffffffffffffffff8111156125af576125ae61346c565b5b6125bb888289016123f8565b935050606086013567ffffffffffffffff8111156125dc576125db61346c565b5b6125e8888289016123f8565b92505060806125f988828901612426565b9150509295509295909350565b600061261283836129dc565b60808301905092915050565b600061262a8383612a31565b905092915050565b61263b816131ed565b82525050565b61264a816131ed565b82525050565b600061265b8261304e565b6126658185613089565b93506126708361302e565b8060005b838110156126a15781516126888882612606565b97506126938361306f565b925050600181019050612674565b5085935050505092915050565b60006126b982613059565b6126c3818561309a565b9350836020820285016126d58561303e565b8060005b8581101561271157848403895281516126f2858261261e565b94506126fd8361307c565b925060208a019950506001810190506126d9565b50829750879550505050505092915050565b61272c816131ff565b82525050565b61273b816131ff565b82525050565b61274a81613248565b82525050565b600061275b82613064565b61276581856130b6565b9350612775818560208601613269565b61277e81613476565b840191505092915050565b6000612796600f836130c7565b91506127a182613487565b602082019050919050565b60006127b96013836130c7565b91506127c4826134b0565b602082019050919050565b60006127dc6010836130c7565b91506127e7826134d9565b602082019050919050565b60006127ff6018836130c7565b915061280a82613502565b602082019050919050565b60006128226014836130c7565b915061282d8261352b565b602082019050919050565b6000612845601b836130c7565b915061285082613554565b602082019050919050565b6000612868600e836130c7565b91506128738261357d565b602082019050919050565b600061288b6015836130c7565b9150612896826135a6565b602082019050919050565b60006128ae6026836130c7565b91506128b9826135cf565b604082019050919050565b60006128d16013836130c7565b91506128dc8261361e565b602082019050919050565b60006128f4600f836130c7565b91506128ff82613647565b602082019050919050565b60006129176011836130c7565b915061292282613670565b602082019050919050565b600061293a600f836130c7565b915061294582613699565b602082019050919050565b600061295d6013836130c7565b9150612968826136c2565b602082019050919050565b60006129806018836130c7565b915061298b826136eb565b602082019050919050565b60006129a36000836130ab565b91506129ae82613714565b600082019050919050565b60006129c6601f836130c7565b91506129d182613717565b602082019050919050565b6080820160008201516129f26000850182612632565b506020820151612a056020850182612c2b565b506040820151612a186040850182612c2b565b506060820151612a2b6060850182612723565b50505050565b600061016083016000830151612a4a6000860182612c2b565b506020830151612a5d6020860182612632565b5060408301518482036040860152612a758282612750565b91505060608301518482036060860152612a8f8282612750565b91505060808301518482036080860152612aa98282612750565b91505060a0830151612abe60a0860182612c2b565b5060c0830151612ad160c0860182612c2b565b5060e0830151612ae460e0860182612c2b565b50610100830151612af9610100860182612c2b565b50610120830151612b0e610120860182612c2b565b50610140830151612b23610140860182612741565b508091505092915050565b600061016083016000830151612b476000860182612c2b565b506020830151612b5a6020860182612632565b5060408301518482036040860152612b728282612750565b91505060608301518482036060860152612b8c8282612750565b91505060808301518482036080860152612ba68282612750565b91505060a0830151612bbb60a0860182612c2b565b5060c0830151612bce60c0860182612c2b565b5060e0830151612be160e0860182612c2b565b50610100830151612bf6610100860182612c2b565b50610120830151612c0b610120860182612c2b565b50610140830151612c20610140860182612741565b508091505092915050565b612c348161323e565b82525050565b612c438161323e565b82525050565b6000612c5482612996565b9150819050919050565b6000602082019050612c736000830184612641565b92915050565b60006020820190508181036000830152612c938184612650565b905092915050565b60006020820190508181036000830152612cb581846126ae565b905092915050565b6000602082019050612cd26000830184612732565b92915050565b60006020820190508181036000830152612cf1816127ac565b9050919050565b60006020820190508181036000830152612d11816127f2565b9050919050565b60006020820190508181036000830152612d3181612815565b9050919050565b60006020820190508181036000830152612d5181612838565b9050919050565b60006020820190508181036000830152612d718161287e565b9050919050565b60006020820190508181036000830152612d91816128a1565b9050919050565b60006020820190508181036000830152612db1816128c4565b9050919050565b60006020820190508181036000830152612dd18161290a565b9050919050565b60006020820190508181036000830152612df181612950565b9050919050565b60006020820190508181036000830152612e1181612973565b9050919050565b60006020820190508181036000830152612e31816129b9565b9050919050565b60006020820190508181036000830152612e528184612b2e565b905092915050565b6000602082019050612e6f6000830184612c3a565b92915050565b6000606082019050612e8a6000830185612c3a565b8181036020830152612e9b81612789565b9050612eaa6040830184612c3a565b9392505050565b6000606082019050612ec66000830185612c3a565b8181036020830152612ed7816127cf565b9050612ee66040830184612c3a565b9392505050565b6000606082019050612f026000830185612c3a565b8181036020830152612f138161285b565b9050612f226040830184612c3a565b9392505050565b6000606082019050612f3e6000830185612c3a565b8181036020830152612f4f816128e7565b9050612f5e6040830184612c3a565b9392505050565b6000606082019050612f7a6000830185612c3a565b8181036020830152612f8b8161292d565b9050612f9a6040830184612c3a565b9392505050565b6000606082019050612fb66000830186612c3a565b612fc36020830185612c3a565b612fd06040830184612c3a565b949350505050565b6000612fe2612ff3565b9050612fee82826132ce565b919050565b6000604051905090565b600067ffffffffffffffff82111561301857613017613433565b5b61302182613476565b9050602081019050919050565b6000819050602082019050919050565b6000819050602082019050919050565b600081519050919050565b600081519050919050565b600081519050919050565b6000602082019050919050565b6000602082019050919050565b600082825260208201905092915050565b600082825260208201905092915050565b600081905092915050565b600082825260208201905092915050565b600082825260208201905092915050565b60006130e38261323e565b91506130ee8361323e565b9250827fffffffffffffffffffffffffffffffffffffffffffffffffffffffffffffffff0382111561312357613122613348565b5b828201905092915050565b60006131398261323e565b91506131448361323e565b92508261315457613153613377565b5b828204905092915050565b600061316a8261323e565b91506131758361323e565b9250817fffffffffffffffffffffffffffffffffffffffffffffffffffffffffffffffff04831182151516156131ae576131ad613348565b5b828202905092915050565b60006131c48261323e565b91506131cf8361323e565b9250828210156131e2576131e1613348565b5b828203905092915050565b60006131f88261321e565b9050919050565b60008115159050919050565b600081905061321982613740565b919050565b600073ffffffffffffffffffffffffffffffffffffffff82169050919050565b6000819050919050565b60006132538261320b565b9050919050565b82818337600083830152505050565b60005b8381101561328757808201518184015260208101905061326c565b83811115613296576000848401525b50505050565b600060028204905060018216806132b457607f821691505b602082108114156132c8576132c76133d5565b5b50919050565b6132d782613476565b810181811067ffffffffffffffff821117156132f6576132f5613433565b5b80604052505050565b600061330a8261323e565b91507fffffffffffffffffffffffffffffffffffffffffffffffffffffffffffffffff82141561333d5761333c613348565b5b600182019050919050565b7f4e487b7100000000000000000000000000000000000000000000000000000000600052601160045260246000fd5b7f4e487b7100000000000000000000000000000000000000000000000000000000600052601260045260246000fd5b7f4e487b7100000000000000000000000000000000000000000000000000000000600052602160045260246000fd5b7f4e487b7100000000000000000000000000000000000000000000000000000000600052602260045260246000fd5b7f4e487b7100000000000000000000000000000000000000000000000000000000600052603260045260246000fd5b7f4e487b7100000000000000000000000000000000000000000000000000000000600052604160045260246000fd5b600080fd5b600080fd5b600080fd5b600080fd5b6000601f19601f8301169050919050565b7f50524f4a4543542044454c455445440000000000000000000000000000000000600082015250565b7f556e617574686f72697a656420456e7469747900000000000000000000000000600082015250565b7f50524f4a4543542050414944204f555400000000000000000000000000000000600082015250565b7f50726f6a656374206e6f206c6f6e676572206f70656e65640000000000000000600082015250565b7f50726f6a656374206e6f7420415050524f564544000000000000000000000000600082015250565b7f4465736372697074696f6e2063616e6e6f7420626520656d7074790000000000600082015250565b7f50524f4a454354204241434b4544000000000000000000000000000000000000600082015250565b7f5469746c652063616e6e6f7420626520656d7074790000000000000000000000600082015250565b7f50726f6a656374206e6f74206d61726b656420617320726576657274206f722060008201527f64656c6574650000000000000000000000000000000000000000000000000000602082015250565b7f436f73742063616e6e6f74206265207a65726f00000000000000000000000000600082015250565b7f50524f4a45435420555044415445440000000000000000000000000000000000600082015250565b7f50726f6a656374206e6f7420666f756e64000000000000000000000000000000600082015250565b7f50524f4a45435420435245415445440000000000000000000000000000000000600082015250565b7f4f776e6572207265736572766564206f6e6c7900000000000000000000000000600082015250565b7f496d61676555524c2063616e6e6f7420626520656d7074790000000000000000600082015250565b50565b7f4574686572206d7573742062652067726561746572207468616e207a65726f00600082015250565b60058110613751576137506133a6565b5b50565b61375d8161323e565b811461376857600080fd5b5056fea26469706673582212204c2367c0aee30ff06a847ba3608baf1c14a45ffa85b78e9a12dd907e3c7cc3c364736f6c63430008070033",
  "linkReferences": {},
  "deployedLinkReferences": {}
}